:020000040800F2
:10000000C00A00205D020008F925000865240008E8
:10001000F52500088D0300087F2D00080000000072
:10002000000000000000000000000000A101000826
:10003000B503000800000000F50100080D260008C7
:1000400077020008770200087702000877020008AC
:10005000770200087702000877020008770200089C
:10006000770200087702000877020008770200088C
:10007000770200087702000877020008770200087C
:1000800091030008A1030008770200087702000826
:10009000770200087702000877020008770200085C
:1000A0004927000877020008770200087702000855
:1000B0005927000877020008770200087702000835
:1000C000770200087702000877020008770200082C
:1000D0007702000877020008BD28000877020008B0
:1000E000770200087702000877020008770200080C
:1000F000770200087702000877020008A5030008CD
:1001000077020008770200087702000877020008EB
:1001100077020008770200087702000877020008DB
:1001200077020008770200087702000877020008CB
:1001300077020008770200087702000877020008BB
:10014000770200087702000877020008FD25000802
:10015000770200087702000877020008770200089B
:10016000770200087702000877020008770200088B
:1001700077020008770200087702000800000000FC
:100180007702000877020008DFF810D000F0ECF8E2
:1001900000480047DD2D0008AFF30080C00A0020B2
:1001A0002B4B19680868B0E8F04F80F30988BFF35B
:1001B0006F8F4FF0000080F311887047000000003F
:1001C00006480068006880F3088862B661B6BFF32D
:1001D0004F8FBFF36F8F00DF00BF00BF08ED00E05F
:1001E000DFF80C00016841F470010160704700BF46
:1001F00088ED00E0EFF30980BFF36F8F144B1A68AE
:100200001EF0100F08BF20ED108A20E9F04F10609B
:1002100008B44FF0500080F31188BFF34F8FBFF345
:100220006F8F02F0A1FE4FF0000080F3118808BC30
:1002300019680868B0E8F04F1EF0100F08BFB0EC66
:10024000108A80F30988BFF36F8F704700BF00BF2B
:1002500024000020EFF30580704700000648804727
:1002600006480047FEE7FEE7FEE7FEE7FEE7FEE79B
:10027000FEE7FEE7FEE7FEE7E52600088901000845
:100280002DE9F05F0546002092469B4688460646CB
:10029000814640241BE0284641464746224600F05E
:1002A00053F853465A46C01A914110D31146184686
:1002B000224600F03AF82D1A67EB01084F46224615
:1002C0000120002100F031F817EB00094E41201EFB
:1002D000A4F10104DFDC484631462A464346BDE826
:1002E000F09F40EA01039B0703D009E008C9121FF1
:1002F00008C0042AFAD203E011F8013B00F8013BE0
:10030000521EF9D27047D2B201E000F8012B491E0B
:10031000FBD270470022F6E710B513460A460446A2
:100320001946FFF7F0FF204610BD202A04DB203AD3
:1003300000FA02F1002070479140C2F1200320FA38
:1003400003F3194390407047202A04DB203A21FA36
:1003500002F00021704721FA02F3D040C2F12002DE
:100360009140084319467047064C074D06E0E06887
:1003700040F0010394E8070098471034AC42F6D3EC
:10038000FFF706FF5C3200087C32000800BFFEE782
:1003900010B5024800F060F810BD0000A000002079
:1003A0007047000010B5024800F056F810BD00007C
:1003B00048010020704770471CB500200090184885
:1003C0000068C06800F0200048B315480068006865
:1003D00000F02000202822D1114800684068C0B2F7
:1003E000019010480078401C0E49087000236A46AE
:1003F00001A90D48006802F0FDFD6FF020000849DA
:10040000096808600098012809D1009838B14FF0B8
:10041000805006490860BFF34F8FBFF36F8F1CBD3C
:1004200080060020800000206400002004ED00E031
:10043000014691F83500022803D08020486501204C
:100440007047052081F835000868006820F0010039
:100450000A6810600020F3E7F8B504460020009019
:100460008C4800684FF41651B0FBF1F7A56D2E686B
:1004700094F85C1008208840304098B120680068EB
:1004800000F0040070B12068006820F004002168CA
:10049000086094F85C1008208840A860606D40F007
:1004A0000100606594F85C1001208840304068B11C
:1004B0002068406900F0800040B194F85C10012091
:1004C0008840A860606D40F00200606594F85C10A0
:1004D00004208840304068B12068006800F00200C5
:1004E00040B194F85C1004208840A860606D40F032
:1004F0000400606594F85C1010208840304078B3A8
:100500002068006800F0080050B394F85C101020D8
:100510008840A8602068006800F4802080B12068CE
:10052000006800F4002028B9206CC8B12046216C76
:10053000884715E0A06C98B12046A16C88470FE071
:100540002068006800F4807028B92068006820F0F6
:10055000080021680860206C10B12046216C884793
:1005600094F85C10202088403040002865D0206836
:10057000006800F0100000285FD094F85C10202084
:100580008840A86094F83500052828D120680068C4
:1005900020F01600216808602068406920F0800083
:1005A00021684861206C08B9A06C28B120680068F7
:1005B00020F008002168086094F85C103F20884013
:1005C000A86000BF002084F8340000BF012084F838
:1005D0003500206D10B12046216D8847F8BD206898
:1005E000006800F4802080B12068006800F40020DA
:1005F00028B9606C10B12046616C88471DE0E06B43
:10060000D8B12046E16B884717E02068006800F405
:10061000807068B92068006820F0100021680860C8
:1006200000BF002084F8340000BF012084F83500AA
:10063000E06B10B12046E16B8847606D38B3606DA8
:1006400000F00100F0B1052084F835002068006852
:1006500020F001002168086000BF0098401C009055
:10066000B84200D905E02068006800F001000028C9
:10067000F3D100BF00BF002084F8340000BF012088
:1006800084F83500E06C10B12046E16C884700BF6B
:10069000A4E700001400002070B5044600F016F92D
:1006A00006462546681C10B104480078054400BF82
:1006B00000F00CF9801BA842FAD370BD1000002096
:1006C000F8B502460B460025002400200021DCE09E
:1006D000012606FA01F51E6806EA0504AC4273D14C
:1006E0005E68022E02D05E68122E13D1CF0802F18E
:1006F000200656F827004E07F70E0F26BE40B043DF
:100700004F07FF0E1E69BE403043CF0802F120069E
:1007100046F8270010684F000326BE40B0431E79FC
:1007200006F003064F00BE40304310605E68012EA5
:1007300008D05E68022E05D05E68112E02D05E6879
:10074000122E13D190684F000326BE40B0434F00D5
:10075000DE68BE4030439060506801268E40B04352
:100760001E79C6F300168E4030435060D0684F00AB
:100770000326BE40B0434F009E68BE403043D06069
:100780005E6806F08056B6F1805F7DD100BF00261E
:100790000096404E366846F480463E4F3E603E46E8
:1007A000366806F48046009600BF00BF3A4E8F08B8
:1007B00056F827008E07370F0F26BE40B043374E3E
:1007C000B24202D1002624E05EE0354EB24201D1B1
:1007D00001261EE0334EB24201D1022619E0324E0C
:1007E000B24201D1032614E0304EB24201D10426B8
:1007F0000FE02F4EB24201D105260AE02D4EB24243
:1008000001D1062605E02C4EB24201D1072600E0B8
:1008100008268F073F0FBE4030431F4E8F0846F813
:100820002700264E3068A0435E6806F48036B6F591
:10083000803F00D12043214E3060361D3068A043F8
:100840005E6806F40036B6F5003F00D120431B4E2B
:10085000361D3060361D3068A0435E6806F4801691
:10086000B6F5801F00D12043144E08363060361D87
:100870003068A0435E6806F40016B6F5001F00D18C
:1008800020430E4E0C363060491C1029FFF420AF77
:10089000F8BD000044380240083801400000024022
:1008A0000004024000080240000C02400010024018
:1008B0000014024000180240001C0240003C0140AD
:1008C0000AB1816101E00B0483617047014800684F
:1008D000704700000800002010B50446D4F8C0029C
:1008E00002F029F810BD10B50446D4F8C00202F099
:1008F0003AF810BD70472DE9F0410446D4F8008065
:100900004646206802F0E2F8012871D1206802F022
:10091000C6F908B9BDE8F081206802F0C0F900F41A
:100920000010B0F5001F03D14FF40010216848619A
:10093000206802F0B4F900F48010B0F5801F03D1F4
:100940004FF4801021684861206802F0A8F900F097
:100950008060B0F1806F03D14FF080602168486102
:10096000206802F09CF900F00200022801D1216801
:100970004861206802F093F900F00050B0F1005F88
:1009800010D1D6F8400420F02E00C6F840042046CE
:10099000FFF7A9FF0121206802F05FF94FF0005036
:1009A00021684861206802F07AF900F08070B0F1A7
:1009B000807F02D1204601F060FC206802F06FF9D0
:1009C00000F00800082805D1204600F058F808205B
:1009D00021684861206802F062F900F00070B0F10F
:1009E000007F27D1206802F031F9074600251AE080
:1009F00035E005F00F0101208840384090B106F540
:100A0000A06000EB4510006800F40040B0F5004F16
:100A100004D1E9B2204600F0D3FE03E0E9B220465B
:100A200001F086F96D1CA068A842E2D84FF0007072
:100A300021684861206802F032F9C0F3001070B1FB
:100A40002068806920F0100021688861204601F04C
:100A500085FC2068806940F010002168886100BF33
:100A600058E710B50446D4F8C00201F0A8FF10BD45
:100A700010B50446D4F8C00201F0A5FF10BD10B5B2
:100A80000446D4F8C00201F08FFF10BD10B5044633
:100A900000BF94F8B802012801D1022010BD012046
:100AA00084F8B80200BF206801F0DBFF0121206854
:100AB00001F0B2FF00BF002084F8B80200BF00BF01
:100AC000ECE710B5044600BF94F8B802012801D144
:100AD000022010BD012084F8B80200BF206802F097
:100AE000F4F800BF002084F8B80200BF00BFF0E7B0
:100AF00003480068034909780844014908607047C1
:100B0000080000201000002010B50D48006840F4D7
:100B100000700B4908600846006840F48060086077
:100B20000846006840F480700860032000F092F8E6
:100B3000002000F007F800F02BF8002010BD0000A6
:100B4000003C024070B504460E4800784FF47A71BC
:100B5000B1FBF0F00C490968B1FBF0F5284600F054
:100B600099FC08B1012070BD102C07D2002221464B
:100B7000501E00F031F80548046001E00120F2E762
:100B80000020F0E710000020140000200C000020DE
:100B900008B500BF002000900E48006840F4804077
:100BA0000C4908600846006800F48040009000BFCF
:100BB00000BF00BF00200090081F006840F0805078
:100BC000091F08600846006800F08050009000BFD0
:100BD00000BF08BD443802402DE9F05F80460D4655
:100BE0001646002702F0CEF8074639462A46334615
:100BF00001F00700C0F1070ABAF1040F02D94FF063
:100C0000040A01E0C0F1070AD14600F1040ABAF172
:100C1000070F02D24FF0000A01E0A0F1030AD44608
:100C20004FF0010A0AFA09FAAAF1010A0AEA020ACD
:100C30000AFA0CFA4FF0010B0BFA0CFBABF1010BAB
:100C40000BEA030B4AEA0B042146404602F0A2F8E5
:100C5000BDE8F09F00BF00F00702064B19684FF691
:100C6000FF031940044B0B4343EA0221014B196077
:100C700000BF70470CED00E00000FA05F8B504462F
:100C800000250026207800F0010020B9207800F02F
:100C9000040004282FD100205B498866FFF716FE68
:100CA000054606E0FFF712FE401B022801D903208B
:100CB000F8BD56480068C0F3C0600028F2D16068F3
:100CC0008101207A41EA0070504984310860012096
:100CD0004D498866FFF7FAFD054606E0FFF7F6FD89
:100CE000401B022801D90320E2E748480068C0F30E
:100CF000C0600028F2D0207800F0020002287DD1E8
:100D000000BF0020009041484030006840F0805013
:100D10003E49403108600846006800F0805000906D
:100D200000BF00BF3A48006840F48070384908604E
:100D3000FFF7CCFD054606E0FFF7C8FD401B022883
:100D400001D90320B4E73248006800F4807000281D
:100D5000F2D02E487030006800F440764EB3A0897F
:100D600000F44070B04224D028487030006820F46D
:100D70004076012027490860002008602348703031
:100D80000660006800F0010098B1FFF79FFD05467E
:100D900008E0FFF79BFD401B41F28831884201D9F2
:100DA000032085E7194870300068C0F34000002830
:100DB000EFD000BFA08900F44070B0F5407F0CD1A7
:100DC00012480830006820F4F810134AE168114016
:100DD00008430E490831086007E00C4808300068F5
:100DE00020F4F8100949083108600848703000689C
:100DF000A189C1F30B010843044900E002E070310E
:100E0000086000BF002053E700004742003802405E
:100E100000700040400E4742FFFCFF0F70B50446D3
:100E20000D460CB9012070BD5848006800F00F0055
:100E3000A84209D255490D700846006800F00F001D
:100E4000A84201D00120EEE7207800F0020002283D
:100E50001DD1207800F00400042805D14C4800681A
:100E600040F4E0504A490860207800F00800082863
:100E700005D14748006840F460404549086044484F
:100E8000006820F0F000A16808434149086020781C
:100E900000F00100A8B36068012807D13C48083879
:100EA0000068C0F34040B8B90120BCE76068022880
:100EB00002D06068032807D1354808380068C0F3BD
:100EC000406048B90120AEE7314808380068C0F3F7
:100ED000400008B90120A6E72D48006820F0030073
:100EE000616808432A490860FFF7F0FC064609E0FC
:100EF000FFF7ECFC801B41F28831884202D90320C5
:100F000091E707E02248006800F00C006168B0EB50
:100F1000810FEDD11D48006800F00F00A84209D9EB
:100F20001A490D700846006800F00F00A84201D071
:100F3000012078E7207800F00400042807D1144845
:100F4000006820F4E050E168084311490860207807
:100F500000F00800082808D10D48006820F460401F
:100F6000216940EAC1000A49086000F017F8084901
:100F70000968C1F30311074A515CC840064908607B
:100F80000020FFF7DFFD00204DE70000003C02409D
:100F90000838024044320008140000202DE9F047D0
:100FA000002400250026A1462548006800F00C001A
:100FB00020B1042805D008283AD105E0DFF8849054
:100FC00039E0DFF8849036E01D48001F006800F02B
:100FD0003F041B48001F006800F4800078B11A48E5
:100FE0001749091F0968C1F38811A0FB0170014668
:100FF000224600233846FFF743F905460EE0114824
:101000000F49091F0968C1F38811A0FB017001464F
:10101000224600233846FFF733F905460848001FEB
:101020000068C0F30140401C4600B5FBF6F902E041
:10103000DFF8109000BF00BF4846BDE8F087000011
:10104000083802400024F40000127A00F8B5044683
:101050000CB90120F8BD207800F00100002874D000
:10106000F948006800F00C0004280DD0F64800682C
:1010700000F00C00082813D1F348001F006800F4AA
:101080008000B0F5800F0BD1EF4808380068C0F33E
:101090004040002859D06068002856D10120D9E787
:1010A00000BF6068B0F5803F08D1E74808380068A5
:1010B00040F48030E449083908601EE06068B0F50B
:1010C000A02F0DD1E0480838006840F48020DE49A8
:1010D000083908600846006840F4803008600CE079
:1010E000D9480838006820F48030D74908390860AA
:1010F0000846006820F48020086000BF606890B156
:10110000FFF7E4FB054606E0FFF7E0FB401B642821
:1011100001D903209EE7CC4808380068C0F340405E
:101120000028F1D011E0FFF7D1FB054606E0FFF7FC
:10113000CDFB401B642801D903208BE7C248083847
:101140000068C0F340400028F1D1207800F0020090
:1011500002285FD1BC48006800F00C0058B1BA48C2
:10116000006800F00C0008281CD1B748001F006878
:1011700000F48000B0B9B44808380068C0F34000FB
:1011800020B1E068012801D0012063E7AE480838AB
:10119000006820F0F800216940EAC100AA49083936
:1011A000086037E0E06800B30120A8490860FFF755
:1011B0008DFB054606E0FFF789FB401B022801D99D
:1011C000032047E7A04808380068C0F34000002823
:1011D000F1D09D480838006820F0F800216940EA05
:1011E000C10099490839086014E000209749086057
:1011F000FFF76CFB054606E0FFF768FB401B022883
:1012000001D9032026E7904808380068C0F3400061
:101210000028F1D1207800F0080008282CD160695E
:10122000A8B101208A490860FFF750FB054606E097
:10123000FFF74CFB401B022801D903200AE7824834
:101240006C300068C0F340000028F1D014E00020AA
:101250007F490860FFF73AFB054606E0FFF736FBDB
:10126000401B022801D90320F4E677486C3000685F
:10127000C0F340000028F1D1207800F004000428D9
:1012800070D1002670483830006800F0805090B966
:1012900000BF002000906C483830006840F080505B
:1012A0006949383108600846006800F080500090B5
:1012B00000BF00BF01266748006800F48070B0B925
:1012C0006448006840F4807062490860FFF7FEFAE5
:1012D000054606E0FFF7FAFA401B022801D9032071
:1012E000B8E65C48006800F480700028F2D000BFC7
:1012F000A068012808D154486830006840F0010017
:101300005149683108601DE0A06805280DD14E489C
:101310006830006840F004004B49683108600846B6
:10132000006840F0010008600CE047486830006841
:1013300020F001004449683108600846006820F048
:101340000400086000BFA068A8B1FFF7BFFA054617
:1013500009E0FFF7BBFA401B41F28831884202D90D
:10136000032077E626E0384868300068C0F3400084
:101370000028EED013E0FFF7A9FA054608E0FFF7D2
:10138000A5FA401B41F28831884201D9032061E669
:101390002D4868300068C0F340000028EFD1012ECE
:1013A00007D129483830006820F08050264938316C
:1013B000086000BFA069B8B32348006800F00C00C3
:1013C00008285ED0A069022846D100201F4908667F
:1013D000FFF77CFA054606E0FFF778FA401B022883
:1013E00001D9032036E6184808380068C0F3406089
:1013F0000028F1D1D4E907010843616A40EA81116C
:101400000122A06AC2EB500041EA00412C20005D9D
:1014100041EA00600C49091F086001200B49086679
:10142000FFF754FA054607E02DE0FFF74FFA401B9F
:10143000022801D903200DE6034808380068C0F3EC
:1014400040600028F1D01EE008380240000047420A
:10145000800E47420070004000200C490866FFF7EC
:1014600035FA054606E0FFF731FA401B022801D99C
:101470000320EFE506480068C0F340600028F2D181
:1014800001E00120E6E50020E4E50000000047421D
:101490000038024070B504462546681EB0F1807FD2
:1014A00001D301200FE0681E4FF0E02148610F21B9
:1014B0004FF0FF3001F06EFC00204FF0E02188611A
:1014C00007200861002070BD70477047704710B555
:1014D000044620680069C0F34000D8B12068C068A5
:1014E000C0F34000B0B16FF0020021680861012034
:1014F00020772068806900F0030018B12046FFF7CC
:10150000E5FF05E0204600F0ADF8204600F0ABF81E
:101510000020207720680069C0F38000D8B12068DF
:10152000C068C0F38000B0B16FF0040021680861AA
:10153000022020772068806900F4407018B12046AE
:10154000FFF7C4FF05E0204600F08CF8204600F0CD
:101550008AF80020207720680069C0F3C000D8B165
:101560002068C068C0F3C000B0B16FF00800216807
:101570000861042020772068C06900F0030018B1DA
:101580002046FFF7A3FF05E0204600F06BF8204659
:1015900000F069F80020207720680069C0F300108F
:1015A000D8B12068C068C0F30010B0B16FF010006F
:1015B00021680861082020772068C06900F4407025
:1015C00018B12046FFF782FF05E0204600F04AF8F8
:1015D000204600F048F8002020772068006900F0DD
:1015E000010058B12068C06800F0010030B16FF010
:1015F000010021680861204600F036F82068006983
:10160000C0F3C01058B12068C068C0F3C01030B13A
:101610006FF08000216808612046FFF755FF2068C1
:101620000069C0F3801058B12068C068C0F3801012
:1016300030B16FF0400021680861204600F015F8D5
:1016400020680069C0F3401058B12068C068C0F33A
:10165000401030B16FF02000216808612046FFF78C
:1016600034FF10BD704770477047704770470000E7
:101670002DE9F0470446206805682068C6682068A0
:1016800047694FF00008C14605F00F08B8F1000F98
:101690000AD105F0200038B106F0200020B1204624
:1016A00001F085F8BDE8F087B8F1000F6ED007F0C3
:1016B000010018B906F49070002867D005F0010009
:1016C00030B106F4807018B1E06B40F00100E063C7
:1016D00005F0040030B107F0010018B1E06B40F0F4
:1016E0000200E06305F0020030B107F0010018B11C
:1016F000E06B40F00400E06305F0080030B107F053
:10170000010018B1E06B40F00800E063E06B70B3DB
:1017100005F0200028B106F0200010B1204601F0AD
:1017200046F820684069C0F38019E06B00F00800BB
:1017300010B9B9F1000F23D0204601F018F8206845
:10174000406900F04000402816D12068406920F030
:10175000400021684861606B50B11748616B0865B3
:10176000606BFEF765FE10B1606B016D88470CE0A1
:101770002046FFF77BFF08E02046FFF777FF04E0F5
:101780002046FFF773FF0020E0638BE705F0800041
:1017900030B106F0800018B1204601F05BF881E717
:1017A00005F0400030B106F0400018B1204600F0CE
:1017B000EEFF77E700BF75E75B27000870477047CB
:1017C0002DE9F04705468846D5F800904E46444638
:1017D00006F5A06000EB4410806800F004000428C7
:1017E00012D1042106F5A06000EB4410816006F5DB
:1017F000A06000EB4410C06840F0020106F5A06054
:1018000000EB4410C1606DE006F5A06000EB4410F1
:10181000806800F02000202806D1202106F5A06075
:1018200000EB441081605DE006F5A06000EB441021
:10183000806800F00800082825D106F5A06000EBBC
:101840004410C06840F0020106F5A06000EB4410AF
:10185000C160052104EB840205F1380000EBC200F1
:1018600080F82510102106F5A06000EB441081607F
:10187000082106F5A06000EB44108160E1B2286801
:1018800001F029F92EE006F5A06000EB4410806815
:1018900000F48060B0F5806F24D106F5A06000EB05
:1018A0004410C06840F0020106F5A06000EB44104F
:1018B000C160E1B2286801F00EF9102106F5A060C0
:1018C00000EB44108160082104EB840205F138002C
:1018D00000EBC20080F82510C90106F5A06000EBFE
:1018E0004410816006F5A06000EB4410806800F4AD
:1018F0000070B0F5007F17D106F5A06000EB441032
:10190000C06840F0020106F5A06000EB4410C16021
:10191000E1B2286801F0DFF84FF4007106F5A0602D
:1019200000EB4410816001E206F5A06000EB44107A
:10193000806800F0010000287ED02869A8B104EB7F
:10194000840105F1380000EBC100016906F5A060D3
:1019500000EB44100069C0F31200091A04EB840282
:1019600005F1380000EBC2004161012104EB840263
:1019700005F1380000EBC20080F82510002104EBCF
:10198000840205F1380000EBC2000162012106F576
:10199000A06000EB4410816004EB840105F1380085
:1019A00000EBC100C07940B104EB840105F13800BF
:1019B00000EBC100C079022816D106F5A06000EB4B
:1019C0004410C06840F0020106F5A06000EB44102E
:1019D000C160E1B2286801F07EF8102106F5A06030
:1019E00000EB441081602BE004EB840105F138002A
:1019F00000EBC100C079032822D106F5A06000EBFE
:101A00004410006840F0005106F5A06000EB44105F
:101A10000160012104EB840205F1380000EBC200F3
:101A200080F8241004EB840305F1380000EBC300B8
:101A300090F82420E1B200E013E02846FEF75AFFB8
:101A400004EB840105F1380000EBC100007E80F05A
:101A5000010104EB840205F1380000EBC2000176BD
:101A600064E106F5A06000EB4410806800F002001D
:101A7000022871D106F5A06000EB4410C06820F088
:101A8000020106F5A06000EB4410C16004EB840184
:101A900005F1380000EBC10090F82500012809D1BC
:101AA000012104EB840205F1380000EBC20080F84C
:101AB00024108BE004EB840105F1380000EBC10039
:101AC00090F82500052809D1052104EB840205F1D1
:101AD000380000EBC20080F8241077E004EB8401AA
:101AE00005F1380000EBC10090F82500062809D068
:101AF00004EB840105F1380000EBC10090F82500EB
:101B0000082842D104EB840105F1380000EBC10044
:101B1000006A401C04EB840205F1380101EBC201AC
:101B2000086204EB840105F1380000EBC100006A93
:101B3000032812D9002104EB840205F1380000EBE0
:101B4000C2000162042104EB840205F1380000EBBD
:101B5000C20080F8241009E04BE0022104EB84026B
:101B600005F1380000EBC20080F8241006F5A060F3
:101B700000EB4410076827F0804747F0004706F560
:101B8000A06000EB4410076020E004EB840105F145
:101B9000380000EBC10090F82500032816D102217F
:101BA00004EB840205F1380000EBC20080F8241039
:101BB00006F5A06000EB4410076827F0804747F067
:101BC000004706F5A06000EB44100760022106F50F
:101BD000A06000EB4410816004EB840305F1380041
:101BE00000EBC30090F82420E1B22846FEF782FE05
:101BF0009CE006F5A06000EB4410806800F08000D7
:101C000080282ED106F5A06000EB4410C06840F09B
:101C1000020106F5A06000EB4410C16004EB8401F2
:101C200005F1380000EBC100006A401C04EB84029F
:101C300005F1380101EBC2010862062104EB8402C0
:101C400005F1380000EBC20080F82510E1B22868E9
:101C500000F041FF802106F5A06000EB4410816098
:101C600064E006F5A06000EB4410806800F010000E
:101C700010285BD104EB840105F1380000EBC100B2
:101C8000C079032818D1002104EB840205F1380043
:101C900000EBC200016206F5A06000EB4410C068D2
:101CA00040F0020106F5A06000EB4410C160E1B213
:101CB000286800F010FF33E004EB840105F13800E0
:101CC00000EBC100C07940B104EB840105F138009C
:101CD00000EBC100C079022822D1002104EB84026C
:101CE00005F1380000EBC20001622869C0B9032188
:101CF00004EB840205F1380000EBC20080F82510E7
:101D000006F5A06000EB4410C06840F0020106F543
:101D1000A06000EB4410C160E1B2286800F0DBFE77
:101D2000102106F5A06000EB44108160BDE8F0874B
:101D30002DE9F04705460F46D5F800904E463C4643
:101D400006F5A06000EB4410806800F00400042851
:101D500012D1042106F5A06000EB4410816006F565
:101D6000A06000EB4410C06840F0020106F5A060DE
:101D700000EB4410C1607EE206F5A06000EB441069
:101D8000806800F02000202830D1202106F5A060D6
:101D900000EB4410816004EB840105F1380000EB96
:101DA000C10040790128E6D1002104EB840205F14D
:101DB000380000EBC2004171022104EB840205F1FE
:101DC000380000EBC20080F8241006F5A06000EB9C
:101DD0004410C06840F0020106F5A06000EB44101A
:101DE000C160E1B2286800F076FE44E206F5A0602A
:101DF00000EB4410806800F0400040282FD10421FF
:101E000004EB840205F1380000EBC20080F82510D5
:101E1000012104EB840205F1380000EBC20041719E
:101E2000002104EB840205F1380000EBC2000162DE
:101E300006F5A06000EB4410C06840F0020106F512
:101E4000A06000EB4410C160E1B2286800F043FEDE
:101E5000402106F5A06000EB441081600BE206F51E
:101E6000A06000EB4410806800F40070B0F5007FC3
:101E700017D106F5A06000EB4410C06840F00201E5
:101E800006F5A06000EB4410C160E1B2286800F0E4
:101E900022FE4FF4007106F5A06000EB4410816053
:101EA000E9E106F5A06000EB4410806800F0010055
:101EB00030B3002104EB840205F1380000EBC200CE
:101EC000016206F5A06000EB4410C06840F002011A
:101ED00006F5A06000EB4410C160E1B2286800F094
:101EE000FAFD012106F5A06000EB4410816004EBCF
:101EF000840205F1380000EBC20080F82510BAE139
:101F000006F5A06000EB4410806800F00800082887
:101F10001FD1082106F5A06000EB4410816006F592
:101F2000A06000EB4410C06840F0020106F5A0601C
:101F300000EB4410C160E1B2286800F0CCFD05213F
:101F400004EB840205F1380000EBC20080F8251094
:101F500091E106F5A06000EB4410806800F01000ED
:101F600010283FD1002104EB840205F1380000EB7A
:101F7000C2000162032104EB840205F1380000EB8A
:101F8000C20080F8251004EB840105F1380000EB55
:101F9000C100407978B904EB840105F1380000EB09
:101FA000C100007938B9012104EB840205F1380041
:101FB00000EBC200417106F5A06000EB4410C06860
:101FC00040F0020106F5A06000EB4410C160E1B2F0
:101FD000286800F080FD102106F5A06000EB441099
:101FE000816048E106F5A06000EB4410806800F0D5
:101FF000800080281FD106F5A06000EB4410C06867
:1020000040F0020106F5A06000EB4410C160E1B2AF
:10201000286800F060FD062104EB840205F1380019
:1020200000EBC20080F82510802106F5A06000EBCF
:10203000441081601FE106F5A06000EB4410806849
:1020400000F48060B0F5806F25D106F5A06000EB4C
:102050004410C06840F0020106F5A06000EB441097
:10206000C160E1B2286800F036FD102106F5A060DD
:1020700000EB44108160890106F5A06000EB44107C
:102080008160082104EB840205F1380000EBC200F6
:1020900080F82510EFE006F5A06000EB44108068A2
:1020A00000F0020002289CD106F5A06000EB44106D
:1020B000C06820F0020106F5A06000EB4410C1608A
:1020C00004EB840105F1380000EBC10090F8250015
:1020D00001282BD1012104EB840205F1380000EB2B
:1020E000C20080F8241004EB840105F1380000EBF5
:1020F000C100C079022808D004EB840105F1380042
:1021000000EBC100C07903280FD104EB840105F175
:10211000380000EBC100407E80F0010104EB840236
:1021200005F1380000EBC200417692E004EB840137
:1021300005F1380000EBC10090F82500032809D113
:10214000022104EB840205F1380000EBC20080F8A4
:1021500024107EE004EB840105F1380000EBC1009F
:1021600090F82500042809D1022104EB840205F12E
:10217000380000EBC20080F824106AE004EB840110
:1021800005F1380000EBC10090F82500052809D1C1
:10219000052104EB840205F1380000EBC20080F851
:1021A000241056E004EB840105F1380000EBC10077
:1021B00090F82500062809D004EB840105F13800C9
:1021C00000EBC10090F82500082842D104EB8401FF
:1021D00005F1380000EBC100006A401C04EB8402EA
:1021E00005F1380101EBC201086204EB840105F13D
:1021F000380000EBC100006A032811D9002104EB6C
:10220000840205F1380000EBC2000162042104EBF6
:10221000840205F1380000EBC20080F8241008E0C9
:10222000022104EB840205F1380000EBC20080F8C3
:10223000241006F5A06000EB4410D0F8008028F0D0
:10224000804848F0004806F5A06000EB4410C0F854
:102250000080022106F5A06000EB4410816004EBD1
:10226000840305F1380000EBC30090F82420E1B2AC
:102270002846FEF73FFBBDE8F0877CB5044626689C
:102280003546D5F840040190D5F8400400900098F8
:1022900020F02E000090019800F00200022810D1DA
:1022A000019800F0010040B12068806920F00050E2
:1022B000216888612046FEF70FFB009840F002007D
:1022C0000090019800F00800082839D1009840F0EB
:1022D00008000090019800F00400042821D1A069B2
:1022E00002280FD1019800F4C020B0F5802F04D14E
:1022F0000221206800F0B1FC0CE00121206800F010
:10230000ACFC07E0E068012804D14EF6602140F201
:10231000044041512046FEF7ABFB2046FEF7DCFAB5
:102320000EE02046FEF79DFBD5F8400420F02E007D
:10233000C5F840042068806940F000502168886139
:10234000019800F02000202803D1009840F02000E0
:1023500000900098C5F840047CBD00002DE9F05FB6
:102360000546D5F800A057462868D0F8208008F028
:102370000F04C8F3434BC8F30A16BBF1020F09D090
:10238000BBF1030F66D0BBF1050F61D0BBF1070FA6
:102390005FD160E0002E5AD004EB840105F13800D3
:1023A00000EBC100C068E8B3B2B204EB840C05F1E5
:1023B000380303EBCC03D968286800F075FC04EB04
:1023C000840105F1380000EBC100C068811904EBFD
:1023D000840205F1380000EBC200C16004EB840107
:1023E00005F1380000EBC1004069811904EB84025B
:1023F00005F1380000EBC200416107F5A06000EB79
:10240000441000691649084060B107F5A06000EB70
:102410004410D0F8009029F0804949F0004907F5B0
:10242000A06000E013E000EB4410C0F8009004EB63
:10243000840105F1380000EBC100007E80F001014D
:1024400004EB840205F1380000EBC200017603E0E2
:1024500002E000BF00BF00BF00BFBDE8F09F00006A
:102460000000F81F00BFFEE700B587B0142102A8E6
:10247000FDF750FF00BF002001905948006840F070
:102480001000574908600846006800F010000190ED
:1024900000BF00BF00BF002001900846006840F068
:1024A000800008600846006800F08000019000BFCE
:1024B00000BF00BF002001900846006840F0040003
:1024C00008600846006800F00400019000BF00BFEB
:1024D00000BF002001900846006840F0010008603D
:1024E0000846006800F00100019000BF00BF00BF77
:1024F000002001900846006840F00200086008468D
:10250000006800F00200019000BF00BF00BF002083
:1025100001900846006840F008000860084600681E
:1025200000F00800019000BF00BF002242F66021C9
:102530002C48FEF7C5F9002240F601012A48FEF7B3
:10254000BFF900224FF440412848FEF7B9F90022B4
:1025500010212748FEF7B4F942F6602002900120CE
:10256000039000200490059002A91E48FEF7A8F8E9
:1025700040F6010002900120039000200490059095
:1025800002A91948FEF79CF84FF440400290012040
:10259000039000200490059002A91448FEF790F8DB
:1025A000102002900120039000200490059002A9C1
:1025B0000F48FEF785F800224FF470410C48FEF7F3
:1025C0007FF94FF4704002900120039000200490A6
:1025D000059002A90648FEF773F807B000BD000099
:1025E000303802400010024000080240000402405F
:1025F000000C024000BFFEE77047000010B5024823
:10260000FEF779F910BD00006802002010B5FEF752
:102610006FFA10BD00B597B030210BA8FDF77AFE18
:10262000142106A8FDF776FE002002900390049086
:10263000059000BF01902948006840F0805027496C
:1026400008600846006800F08050019000BF00BF9D
:1026500000BF002001902248006840F480402049DB
:1026600008600846006800F48040019000BF00BF89
:1026700001200B9000040C90022011904105129152
:10268000082113914FF4A87114910221159107218B
:1026900016910BA8FEF7DAFC08B1FDF78CFE0F20AF
:1026A000069002200790002008904FF4A050099057
:1026B0000A90052106A8FEF7B1FB08B1FDF77BFEE5
:1026C00001200290000203900221049102A8FEF76B
:1026D000D5FA08B1FDF76FFE17B000BD40380240D3
:1026E000007000401448006840F47000124908600F
:1026F0001248006840F001001049086000200F49AE
:10270000083108600D4800680D4908400B49086011
:102710000C48091D0860081F006820F48020091F6C
:102720000860002005490C3108604FF00060024944
:10273000803908607047000088ED00E000380240F2
:10274000FFFFF6FE1030002410B50248FEF7BFFE72
:1027500010BD0000E8010020704770B50546AC6B65
:102760000020E085E0842046FEF780FF70BD016810
:10277000C96821F490710268D1600168496921F04B
:10278000010102685161202180F83A10704710B5AC
:1027900004462068C06820F040002168C8602020FE
:1027A00084F839002046FFF70AF8002010BD70B504
:1027B000044694F83A0022284AD1A068B0F5805F18
:1027C00013D1A56A206940B920684068C0F30800A9
:1027D0002880A06A801CA06219E020684068C0B20E
:1027E0002880A06A401CA06211E0206938B92068E6
:1027F0004068C1B2A26A501CA062117007E0206854
:10280000406800F07F01A26A501CA0621170E08D48
:10281000401E80B2E085C8B92068C06820F0200062
:102820002168C8602068C06820F480702168C86092
:102830002068406920F0010021684861202084F868
:102840003A002046FEF7BAFF002070BD0020FCE7EA
:102850000220FAE7014691F8390021282CD1886836
:10286000B0F5805F0FD10A6A1088C0F308000B68CA
:102870005860086918B9086A801C086209E0086A8B
:10288000401C086205E00B6A581C086218780B6847
:102890005860C88C401E80B2C88458B90868C068A7
:1028A00020F080000B68D8600868C06840F04000E5
:1028B0000B68D860002070470220FCE710B5034881
:1028C000FEF7D6FEFDF778FD10BD00008006002063
:1028D00002460B2909D202F5607030F82100C0F3DE
:1028E0000E0302F5607040F8213000207047014669
:1028F000002031B1012906D0022906D0032908D1D0
:1029000005E0002007E0022005E0012003E00220AE
:1029100001E0022000BF00BF704710B504462078D8
:102920000B2807D1D4F8780320B1D4F87803816953
:102930002046884710BD10B50446207858B90121BB
:1029400084F81E13D4F8C80358B104212046D4F8E3
:10295000C823904705E094F81F03012801D1022005
:102960002070002010BD10B50446204600F03EF84F
:1029700021792046FFF7ACFF61792046FFF7A8FFD9
:10298000002184F81E13D4F8C80320B10521204685
:10299000D4F8C823904700BF00BF204600F017F8C6
:1029A00003202070002010BD10B50446D4F8BC03ED
:1029B000401CC4F8BC032046FFF7AFFF10BD002247
:1029C00080F81F237047012280F81F23704770B5DD
:1029D000044600250026D4F8C403FEF757F8054640
:1029E0002846FFF784FF0646304670BD70B50446A2
:1029F00000250026D4F8C403FEF763F805462846F0
:102A0000FFF775FF0646304670BD0146886820F026
:102A1000010088600020704708B502461346002078
:102A20000090D3F840040090009820F02E00009011
:102A3000009800F4805030B9012904D1009840F486
:102A40008050C3F84004009800F48050B0F5805FD7
:102A500005D121B9009820F48050C3F8400400202B
:102A600008BD0146886840F001008860002070477A
:102A7000014600221020086100BF501C0246064B90
:102A8000984201D903207047086900F0100010280F
:102A9000F3D00020F7E70000400D030010B5024618
:102AA0000023202040EA8110106100BF581C03461B
:102AB000054CA04201D9032010BD106900F0200090
:102AC0002028F3D00020F7E7400D030001464869B5
:102AD00000F001007047F0B503460C461A46214647
:102AE000002502F5A06000EB41100068C0F38146AC
:102AF0000EB1022E53D102F5A06000EB4110006828
:102B000040F0804702F5A06000EB41100760D86AF2
:102B100000F47F00A8BB02F5A06000EB4110006844
:102B200020F0004702F5A06000EB4110076002F5BD
:102B3000A06000EB4110006840F0004702F5A06083
:102B400000EB4110076002F5A06000EB4110006847
:102B500020F4004702F5A06000EB4110076000BFC1
:102B6000681C0546B0F57A7F00D909E002F5A0603F
:102B700000EB4110006800F00040B0F1004FEFD0D2
:102B800062E0FFE702F5A06000EB4110006840F052
:102B9000004702F5A06000EB4110076054E002F529
:102BA000A06000EB4110006840F0804702F5A06093
:102BB00000EB411007604FF48260805800F47F0002
:102BC000A8BB02F5A06000EB4110006820F00047B0
:102BD00002F5A06000EB4110076002F5A06000EB79
:102BE0004110006840F0004702F5A06000EB411082
:102BF000076002F5A06000EB4110006820F4004778
:102C000002F5A06000EB4110076000BF681C05469C
:102C1000B0F57A7F00D909E002F5A06000EB411021
:102C2000006800F00040B0F1004FEFD00CE0FFE78B
:102C300002F5A06000EB4110006840F0004702F58B
:102C4000A06000EB411007600020F0BD01460A467D
:102C500040F21440805880B2704710B502460B46CF
:102C60001146D1F8000420F00300C1F80004D1F8A7
:102C7000000403F003042043C1F80004012B05D134
:102C80004BF6803440F20440445006E0022B04D15D
:102C900041F2707440F204404450002010BD0146DF
:102CA00048698A6910407047F0B503461E460846D9
:102CB000D71CBD08002405E04FF48057BF590760BA
:102CC000001D641CAC42F7D3F0BD2DE9F04107466E
:102CD0003E464FF000083846FFF797FE1021384671
:102CE000FFF7DCFE3846FFF7C3FE002410E006F5D0
:102CF000A06000EB4410056845F0804525F00045D4
:102D000025F4004506F5A06000EB44100560641C46
:102D10000F2CECD9002423E006F5A06000EB441052
:102D2000056845F0804545F0004525F4004506F569
:102D3000A06000EB4410056000BF08F10100804670
:102D4000B0F57A7F00D909E006F5A06000EB4410E9
:102D5000006800F00040B0F1004FEED000BF641CEE
:102D60000F2CD9D94FF0FF3140F214408151084661
:102D700078613846FFF775FE0020BDE8F08100BF9E
:102D8000FEE7000002480068C0F302207047000020
:102D90000CED00E010B5002804DB0A07130E054A0D
:102DA000135406E00A07140E034A00F00F031B1F1A
:102DB000D45410BD00E400E018ED00E002E008C8C3
:102DC000121F08C1002AFAD170477047002001E0A5
:102DD00001C1121F002AFBD170470000FDF794FECD
:102DE000FFF718FCFFF740FB1CE001224FF4704195
:102DF0000D48FDF765FD4FF47A70FDF74DFC00229C
:102E00004FF470410848FDF75BFD4FF47A70FDF711
:102E100043FC064890ED000AF7EE000A30EE200A67
:102E200080ED000AE1E70000000C024000000020F5
:102E30002DE9F04104460E4615460027206C40B9A6
:102E4000206878BB606800F04DF90746002060609C
:102E500028E07DB93146226CA068FDF742FA216C6A
:102E6000A0680844A060D4E9011088421AD3206801
:102E7000A06017E03146226CE068FDF732FA216C61
:102E8000E068401AE0602168E068884203D2216C63
:102E90006068401AE060022D04D1A06B10B1A06BF5
:102EA000401EA063A06B401CA0633846BDE8F081C3
:102EB00001460A69D1E901309860D1E901035860FF
:102EC0005068884201D1886850600020086110680D
:102ED000401E10601068704742684A6093688B60BB
:102EE000936859609160086103685B1C03607047D8
:102EF00070B5FDF7AFF90446102C16D304F1E020AD
:102F000090F8F05315480078854201DB012000E07D
:102F1000002050B900BF502080F31188BFF34F8FBD
:102F2000BFF36F8F00BF00BFFEE70D48006800F4DD
:102F3000E0600C490968884201D8012000E00020C7
:102F400050B900BF502080F31188BFF34F8FBFF3FB
:102F50006F8F00BF00BFFEE770BD00001C000020A7
:102F60000CED00E0200000201D48006818B1012091
:102F70001C49086032E000201A4908601A480068BD
:102F8000B0FA80F0C0F11F0101EB8100174A52F83E
:102F9000200008B1012000E0002050B900BF5020FF
:102FA00080F31188BFF34F8FBFF36F8F00BF00BF57
:102FB000FEE701EB81020D4B03EB82004268526891
:102FC000426000F108024368934202D142685268AD
:102FD00042604268D268064B1A6000BF704700002A
:102FE00058000020480000203C0000202C05002054
:102FF000240000202DE9F04707468A4690461E46E9
:103000003C4654B900BF502080F31188BFF34F8F66
:10301000BFF36F8F00BF00BFFEE7BAF1000F01D111
:10302000206C08B9012000E0002050B900BF5020FA
:1030300080F31188BFF34F8FBFF36F8F00BF00BFC6
:10304000FEE7022E02D1E06B012801D1012000E051
:10305000002050B900BF502080F31188BFF34F8F7C
:10306000BFF36F8F00BF00BFFEE7FFF741FF00BF58
:103070005021EFF3118081F31188BFF34F8FBFF31D
:103080006F8F00BF0546A06BE16B884201D3022E13
:103090001FD1324651462046FFF7CAFEA06C401CA5
:1030A00088B9606A08B9012000E0002070B904F115
:1030B000240000F07BF848B1B8F1000F06D00120E1
:1030C000C8F8000002E0A06C401CA0644FF00109A9
:1030D00001E04FF0000900BF85F3118800BF4846AA
:1030E000BDE8F08770B505462C460026002D55D06A
:1030F0002B480068844201D1012000E0002050B933
:1031000000BF502080F31188BFF34F8FBFF36F8F44
:1031100000BF00BFFEE7206D50B900BF502080F314
:103120001188BFF34F8FBFF36F8F00BF00BFFEE763
:10313000206D401E2065E16CE06A88422ED0206D33
:1031400060BB201DFFF7B4FE78B9E06A00EB800099
:10315000144951F8200040B994F82C1001208840FF
:1031600011490968814310480160E06CE062E06A3F
:10317000C0F10C00A06194F82C10012088400A498D
:103180000968084308490860E16A01EB8101054AC2
:1031900002EB8100211DFFF79FFE0126304670BD26
:1031A000240000202C0500203C00002070B50646BD
:1031B000F068C46854B900BF502080F31188BFF391
:1031C0004F8FBFF36F8F00BF00BFFEE704F1180001
:1031D000FFF76EFE15480068A8B9201DFFF768FECE
:1031E00094F82C10012088401149096808431049BF
:1031F0000860E16A01EB81010E4A02EB8100211DAA
:10320000FFF76AFE04E004F118010B48FFF764FEC3
:103210000A49E06A0968C96A884204D9012501207F
:103220000749086000E00025284670BD58000020CE
:103230003C0000202C050020440600202400002033
:10324000480000200000000000000000010203040C
:103250000607080900000000010203047C32000890
:10326000000000208C000000BC2D0008083300087E
:103270008C000020340A0000CC2D00080000000063
:10328000000000000000000010000000010000002D
:103290000024F400AAAAAAAA00000000000000006E
:1032A000000000000000000000000000000000001E
:1032B000000000000000000000000000000000000E
:1032C00000000000000000000000000000000000FE
:1032D00000000000000000000000000000000000EE
:1032E00000000000000000000000000000000000DE
:1032F00000000000000000000000000000000000CE
:083300000000000000000000C5
:040000050800018965
:00000001FF
